{
  "contractName": "master",
  "abi": [
    {
      "constant": false,
      "inputs": [
        {
          "name": "vendorAddress",
          "type": "address"
        },
        {
          "name": "vesselAddress",
          "type": "address"
        },
        {
          "name": "shipperAddress",
          "type": "address"
        },
        {
          "name": "loadingPortAddress",
          "type": "address"
        },
        {
          "name": "dischargePortAddress",
          "type": "address"
        },
        {
          "name": "inspectorAddress",
          "type": "address"
        }
      ],
      "name": "verfifyNOR",
      "outputs": [],
      "payable": false,
      "stateMutability": "nonpayable",
      "type": "function"
    }
  ],
  "bytecode": "0x608060405260008060006101000a81548160ff02191690831515021790555034801561002a57600080fd5b506105ab8061003a6000396000f300608060405260043610610041576000357c0100000000000000000000000000000000000000000000000000000000900463ffffffff168063aa553fa514610046575b600080fd5b34801561005257600080fd5b50610127600480360381019080803573ffffffffffffffffffffffffffffffffffffffff169060200190929190803573ffffffffffffffffffffffffffffffffffffffff169060200190929190803573ffffffffffffffffffffffffffffffffffffffff169060200190929190803573ffffffffffffffffffffffffffffffffffffffff169060200190929190803573ffffffffffffffffffffffffffffffffffffffff169060200190929190803573ffffffffffffffffffffffffffffffffffffffff169060200190929190505050610129565b005b6000806000806000808b95508a94508993508892508791508690506105068673ffffffffffffffffffffffffffffffffffffffff1663473e9bc26040518163ffffffff167c0100000000000000000000000000000000000000000000000000000000028152600401602060405180830381600087803b1580156101ab57600080fd5b505af11580156101bf573d6000803e3d6000fd5b505050506040513d60208110156101d557600080fd5b81019080805190602001909291905050508673ffffffffffffffffffffffffffffffffffffffff1663473e9bc26040518163ffffffff167c0100000000000000000000000000000000000000000000000000000000028152600401602060405180830381600087803b15801561024a57600080fd5b505af115801561025e573d6000803e3d6000fd5b505050506040513d602081101561027457600080fd5b81019080805190602001909291905050508673ffffffffffffffffffffffffffffffffffffffff1663473e9bc26040518163ffffffff167c0100000000000000000000000000000000000000000000000000000000028152600401602060405180830381600087803b1580156102e957600080fd5b505af11580156102fd573d6000803e3d6000fd5b505050506040513d602081101561031357600080fd5b81019080805190602001909291905050508673ffffffffffffffffffffffffffffffffffffffff1663473e9bc26040518163ffffffff167c0100000000000000000000000000000000000000000000000000000000028152600401602060405180830381600087803b15801561038857600080fd5b505af115801561039c573d6000803e3d6000fd5b505050506040513d60208110156103b257600080fd5b81019080805190602001909291905050508673ffffffffffffffffffffffffffffffffffffffff1663473e9bc26040518163ffffffff167c0100000000000000000000000000000000000000000000000000000000028152600401602060405180830381600087803b15801561042757600080fd5b505af115801561043b573d6000803e3d6000fd5b505050506040513d602081101561045157600080fd5b81019080805190602001909291905050508673ffffffffffffffffffffffffffffffffffffffff1663473e9bc26040518163ffffffff167c0100000000000000000000000000000000000000000000000000000000028152600401602060405180830381600087803b1580156104c657600080fd5b505af11580156104da573d6000803e3d6000fd5b505050506040513d60208110156104f057600080fd5b810190808051906020019092919050505061052c565b6000806101000a81548160ff021916908315150217905550505050505050505050505050565b600080868814801561053d57508587145b801561054857508486145b801561055357508385145b801561055e57508284145b1561056c5760019050610571565b600090505b8091505096955050505050505600a165627a7a7230582033ec6847a4f75e43bf5b3952d097b019e6690904e6a1152f55bca9038b8fe4c00029",
  "source": "pragma solidity ^0.4.23;\n\nimport \"./vendor.sol\";\nimport \"./vessel.sol\";\nimport \"./shipper.sol\";\nimport \"./loadingPort.sol\";\nimport \"./dischargePort.sol\";\nimport \"./inspector.sol\";\n\ncontract master {\n   \n    bool dateVerification = false;\n\n    function verfifyNOR(\n        address vendorAddress,\n        address vesselAddress,\n        address shipperAddress,\n        address loadingPortAddress,\n        address dischargePortAddress,\n        address inspectorAddress\n    ) public {\n        vendor ven = vendor(vendorAddress);\n        vessel ves = vessel(vesselAddress);\n        shipper ship = shipper(shipperAddress);\n        loadingPort load = loadingPort(loadingPortAddress);\n        dischargePort discharge = dischargePort(dischargePortAddress);\n        inspector inspec = inspector(inspectorAddress);\n\n        dateVerification = dateVerify(\n            ven.getOriginNOR(),\n            ves.getOriginNOR(),\n            ship.getOriginNOR(),\n            load.getOriginNOR(),\n            discharge.getOriginNOR(),\n            inspec.getOriginNOR()\n        );\n    }\n\n    function dateVerify(\n        uint d1,\n        uint d2,\n        uint d3,\n        uint d4,\n        uint d5,\n        uint d6\n    ) private pure returns (bool){\n        bool condition;\n        if (d1 == d2 && d2 == d3 && d3 == d4 && d4 == d5 && d5 == d6) {//simple date verification function\n            condition = true;\n        }\n        else {\n            condition = false;\n        }\n        return condition;\n    }\n}\n\n",
  "sourcePath": "/home/arpit/ChainSkills/oilShipmentPOC/contracts/master.sol",
  "compiler": {
    "name": "solc",
    "version": "0.4.24+commit.e67f0147.Emscripten.clang"
  },
  "schemaVersion": "2.0.1",
  "updatedAt": "2018-08-07T08:20:30.549Z"
}