{
  "contractName": "participant",
  "abi": [
    {
      "constant": false,
      "inputs": [
        {
          "name": "_origin",
          "type": "string"
        }
      ],
      "name": "addOrigin",
      "outputs": [],
      "payable": false,
      "stateMutability": "nonpayable",
      "type": "function"
    },
    {
      "constant": true,
      "inputs": [],
      "name": "getOrigin",
      "outputs": [
        {
          "name": "",
          "type": "string"
        }
      ],
      "payable": false,
      "stateMutability": "view",
      "type": "function"
    },
    {
      "constant": false,
      "inputs": [
        {
          "name": "_destination",
          "type": "string"
        }
      ],
      "name": "addDestination",
      "outputs": [],
      "payable": false,
      "stateMutability": "nonpayable",
      "type": "function"
    },
    {
      "constant": true,
      "inputs": [],
      "name": "getDestination",
      "outputs": [
        {
          "name": "",
          "type": "string"
        }
      ],
      "payable": false,
      "stateMutability": "view",
      "type": "function"
    },
    {
      "constant": false,
      "inputs": [
        {
          "name": "_time",
          "type": "uint256"
        }
      ],
      "name": "setOriginNOR",
      "outputs": [],
      "payable": false,
      "stateMutability": "nonpayable",
      "type": "function"
    },
    {
      "constant": true,
      "inputs": [],
      "name": "getOriginNOR",
      "outputs": [
        {
          "name": "time",
          "type": "uint256"
        }
      ],
      "payable": false,
      "stateMutability": "view",
      "type": "function"
    },
    {
      "constant": false,
      "inputs": [
        {
          "name": "_time",
          "type": "uint256"
        },
        {
          "name": "_actualVolume",
          "type": "uint256"
        }
      ],
      "name": "setOriginSail",
      "outputs": [],
      "payable": false,
      "stateMutability": "nonpayable",
      "type": "function"
    },
    {
      "constant": true,
      "inputs": [],
      "name": "getOriginSail",
      "outputs": [
        {
          "name": "time",
          "type": "uint256"
        },
        {
          "name": "actualVolume",
          "type": "uint256"
        }
      ],
      "payable": false,
      "stateMutability": "view",
      "type": "function"
    },
    {
      "constant": false,
      "inputs": [
        {
          "name": "_time",
          "type": "uint256"
        }
      ],
      "name": "setDestinationNOR",
      "outputs": [],
      "payable": false,
      "stateMutability": "nonpayable",
      "type": "function"
    },
    {
      "constant": true,
      "inputs": [],
      "name": "getDestinationNOR",
      "outputs": [
        {
          "name": "time",
          "type": "uint256"
        }
      ],
      "payable": false,
      "stateMutability": "view",
      "type": "function"
    },
    {
      "constant": false,
      "inputs": [
        {
          "name": "_time",
          "type": "uint256"
        },
        {
          "name": "_actualVolume",
          "type": "uint256"
        }
      ],
      "name": "setDestinationSail",
      "outputs": [],
      "payable": false,
      "stateMutability": "nonpayable",
      "type": "function"
    },
    {
      "constant": true,
      "inputs": [],
      "name": "getDestinationSail",
      "outputs": [
        {
          "name": "time",
          "type": "uint256"
        },
        {
          "name": "actualVolume",
          "type": "uint256"
        }
      ],
      "payable": false,
      "stateMutability": "view",
      "type": "function"
    }
  ],
  "bytecode": "0x608060405234801561001057600080fd5b506108c4806100206000396000f3006080604052600436106100ba576000357c0100000000000000000000000000000000000000000000000000000000900463ffffffff16806316ad9542146100bf57806332245dca1461014f5780633756bc1a146101815780633eaa0b02146101ae578063473e9bc2146102175780636e4651fe1461024257806392f556131461026d5780639f9c27e8146102a4578063a50a18be146102db578063acff1a9e14610308578063df1f29ee14610371578063f19779d214610401575b600080fd5b3480156100cb57600080fd5b506100d4610433565b6040518080602001828103825283818151815260200191508051906020019080838360005b838110156101145780820151818401526020810190506100f9565b50505050905090810190601f1680156101415780820380516001836020036101000a031916815260200191505b509250505060405180910390f35b34801561015b57600080fd5b506101646104d5565b604051808381526020018281526020019250505060405180910390f35b34801561018d57600080fd5b506101ac60048036038101908080359060200190929190505050610524565b005b3480156101ba57600080fd5b50610215600480360381019080803590602001908201803590602001908080601f016020809104026020016040519081016040528093929190818152602001838380828437820191505050505050919291929050505061055b565b005b34801561022357600080fd5b5061022c610575565b6040518082815260200191505060405180910390f35b34801561024e57600080fd5b5061025761059e565b6040518082815260200191505060405180910390f35b34801561027957600080fd5b506102a260048036038101908080359060200190929190803590602001909291905050506105c6565b005b3480156102b057600080fd5b506102d96004803603810190808035906020019092919080359060200190929190505050610607565b005b3480156102e757600080fd5b5061030660048036038101908080359060200190929190505050610648565b005b34801561031457600080fd5b5061036f600480360381019080803590602001908201803590602001908080601f016020809104026020016040519081016040528093929190818152602001838380828437820191505050505050919291929050505061067e565b005b34801561037d57600080fd5b50610386610698565b6040518080602001828103825283818151815260200191508051906020019080838360005b838110156103c65780820151818401526020810190506103ab565b50505050905090810190601f1680156103f35780820380516001836020036101000a031916815260200191505b509250505060405180910390f35b34801561040d57600080fd5b5061041661073a565b604051808381526020018281526020019250505060405180910390f35b606060018054600181600116156101000203166002900480601f0160208091040260200160405190810160405280929190818152602001828054600181600116156101000203166002900480156104cb5780601f106104a0576101008083540402835291602001916104cb565b820191906000526020600020905b8154815290600101906020018083116104ae57829003601f168201915b5050505050905090565b600080600260038154811015156104e857fe5b9060005260206000209060020201600001546002600381548110151561050a57fe5b906000526020600020906002020160010154915091509091565b600061052e610789565b6002600081548110151561053e57fe5b906000526020600020906002020190508181600001819055505050565b80600190805190602001906105719291906107d9565b5050565b60006002600081548110151561058757fe5b906000526020600020906002020160000154905090565b60006002808154811015156105af57fe5b906000526020600020906002020160000154905090565b60006105d0610789565b600260038154811015156105e057fe5b90600052602060002090600202019050828160000181905550818160010181905550505050565b6000610611610789565b6002600181548110151561062157fe5b90600052602060002090600202019050828160000181905550818160010181905550505050565b6000610652610789565b60028081548110151561066157fe5b906000526020600020906002020190508181600001819055505050565b80600090805190602001906106949291906107d9565b5050565b606060008054600181600116156101000203166002900480601f0160208091040260200160405190810160405280929190818152602001828054600181600116156101000203166002900480156107305780601f1061070557610100808354040283529160200191610730565b820191906000526020600020905b81548152906001019060200180831161071357829003601f168201915b5050505050905090565b6000806002600181548110151561074d57fe5b9060005260206000209060020201600001546002600181548110151561076f57fe5b906000526020600020906002020160010154915091509091565b610791610859565b60028190806001815401808255809150509060018203906000526020600020906002020160009091929091909150600082015181600001556020820151816001015550505050565b828054600181600116156101000203166002900490600052602060002090601f016020900481019282601f1061081a57805160ff1916838001178555610848565b82800160010185558215610848579182015b8281111561084757825182559160200191906001019061082c565b5b5090506108559190610873565b5090565b604080519081016040528060008152602001600081525090565b61089591905b80821115610891576000816000905550600101610879565b5090565b905600a165627a7a723058203ef26b9ce938bc45e0d9efa0ee423b53ef2fcf07e0cc45af3f49cc90370fedd00029",
  "source": "pragma solidity ^0.4.23;\n\ncontract participant {\n    string origin;\n    string destination;\n\n    struct Events {\n        uint time;\n        uint actualVolume;\n    }\n\n    Events[] events;\n    //  [0]=setOriginNOR\n    //  [1]=setOriginSail\n    //  [2]=setDestinationNOR \n    //  [3]=setDestinationSail\n\n    function Reference() private {\n        Events memory eventStruct;\n        events.push(eventStruct);\n    }\n\n    ////////////////////////////////////////////////////////\n    // Origin\n    ////////////////////////////////////////////////////////\n\n    function addOrigin(string _origin) public {\n        origin = _origin;\n    }\n\n    function getOrigin() public view returns (string){\n        return origin;\n    }\n\n    function addDestination(string _destination) public {\n        destination = _destination;\n    }\n\n    function getDestination() public view returns (string){\n        return destination;\n    }\n\n    function setOriginNOR(uint _time) public {\n        Reference();\n        Events storage aevent = events[0];\n        // these references are writing to events[]\n        aevent.time = _time;\n    }\n\n    function getOriginNOR() public view\n    returns (uint time){\n        return (events[0].time);\n    }\n\n    function setOriginSail(uint _time, uint _actualVolume) public {\n        Reference();\n        Events storage aevent = events[1];\n        // these references are writing to events[]\n        aevent.time = _time;\n        aevent.actualVolume = _actualVolume;\n    }\n\n    function getOriginSail() public view\n    returns (uint time, uint actualVolume){\n        return (events[1].time, events[1].actualVolume);\n    }\n\n\n    ////////////////////////////////////////////////////////\n    // Destination\n    ////////////////////////////////////////////////////////\n\n\n    function setDestinationNOR(uint _time) public {\n        Reference();\n        Events storage aevent = events[2];\n        // these references are writing to events[]\n        aevent.time = _time;\n    }\n\n    function getDestinationNOR() public view\n    returns (uint time){\n        return (events[2].time);\n    }\n\n    function setDestinationSail(uint _time, uint _actualVolume) public {\n        Reference();\n        Events storage aevent = events[3];\n        // these references are writing to events[]\n        aevent.time = _time;\n        aevent.actualVolume = _actualVolume;\n    }\n\n    function getDestinationSail() public view\n    returns (uint time, uint actualVolume){\n        return (events[3].time, events[3].actualVolume);\n    }\n}\n\n",
  "sourcePath": "/home/arpit/ChainSkills/oilShipmentPOC/contracts/participant.sol",
  "compiler": {
    "name": "solc",
    "version": "0.4.24+commit.e67f0147.Emscripten.clang"
  },
  "schemaVersion": "2.0.1",
  "updatedAt": "2018-08-02T09:11:44.866Z"
}