{
  "contractName": "vendor",
  "abi": [
    {
      "constant": true,
      "inputs": [],
      "name": "getDestination",
      "outputs": [
        {
          "name": "",
          "type": "string"
        }
      ],
      "payable": false,
      "stateMutability": "view",
      "type": "function"
    },
    {
      "constant": true,
      "inputs": [],
      "name": "getDestinationSail",
      "outputs": [
        {
          "name": "time",
          "type": "uint256"
        },
        {
          "name": "actualVolume",
          "type": "uint256"
        }
      ],
      "payable": false,
      "stateMutability": "view",
      "type": "function"
    },
    {
      "constant": false,
      "inputs": [
        {
          "name": "_time",
          "type": "uint256"
        }
      ],
      "name": "setOriginNOR",
      "outputs": [],
      "payable": false,
      "stateMutability": "nonpayable",
      "type": "function"
    },
    {
      "constant": false,
      "inputs": [
        {
          "name": "_destination",
          "type": "string"
        }
      ],
      "name": "addDestination",
      "outputs": [],
      "payable": false,
      "stateMutability": "nonpayable",
      "type": "function"
    },
    {
      "constant": true,
      "inputs": [],
      "name": "getOriginNOR",
      "outputs": [
        {
          "name": "time",
          "type": "uint256"
        }
      ],
      "payable": false,
      "stateMutability": "view",
      "type": "function"
    },
    {
      "constant": true,
      "inputs": [],
      "name": "getDestinationNOR",
      "outputs": [
        {
          "name": "time",
          "type": "uint256"
        }
      ],
      "payable": false,
      "stateMutability": "view",
      "type": "function"
    },
    {
      "constant": false,
      "inputs": [
        {
          "name": "_time",
          "type": "uint256"
        },
        {
          "name": "_actualVolume",
          "type": "uint256"
        }
      ],
      "name": "setDestinationSail",
      "outputs": [],
      "payable": false,
      "stateMutability": "nonpayable",
      "type": "function"
    },
    {
      "constant": false,
      "inputs": [
        {
          "name": "_time",
          "type": "uint256"
        },
        {
          "name": "_actualVolume",
          "type": "uint256"
        }
      ],
      "name": "setOriginSail",
      "outputs": [],
      "payable": false,
      "stateMutability": "nonpayable",
      "type": "function"
    },
    {
      "constant": false,
      "inputs": [
        {
          "name": "_time",
          "type": "uint256"
        }
      ],
      "name": "setDestinationNOR",
      "outputs": [],
      "payable": false,
      "stateMutability": "nonpayable",
      "type": "function"
    },
    {
      "constant": false,
      "inputs": [
        {
          "name": "_origin",
          "type": "string"
        }
      ],
      "name": "addOrigin",
      "outputs": [],
      "payable": false,
      "stateMutability": "nonpayable",
      "type": "function"
    },
    {
      "constant": true,
      "inputs": [],
      "name": "getOrigin",
      "outputs": [
        {
          "name": "",
          "type": "string"
        }
      ],
      "payable": false,
      "stateMutability": "view",
      "type": "function"
    },
    {
      "constant": true,
      "inputs": [],
      "name": "getOriginSail",
      "outputs": [
        {
          "name": "time",
          "type": "uint256"
        },
        {
          "name": "actualVolume",
          "type": "uint256"
        }
      ],
      "payable": false,
      "stateMutability": "view",
      "type": "function"
    },
    {
      "anonymous": false,
      "inputs": [
        {
          "indexed": false,
          "name": "name",
          "type": "string"
        },
        {
          "indexed": false,
          "name": "description",
          "type": "string"
        },
        {
          "indexed": false,
          "name": "volume",
          "type": "uint256"
        },
        {
          "indexed": false,
          "name": "loadPrice",
          "type": "uint256"
        }
      ],
      "name": "LogShipment",
      "type": "event"
    },
    {
      "constant": false,
      "inputs": [
        {
          "name": "_name",
          "type": "string"
        },
        {
          "name": "_description",
          "type": "string"
        },
        {
          "name": "_volume",
          "type": "uint256"
        },
        {
          "name": "_loadPrice",
          "type": "uint256"
        }
      ],
      "name": "addShipment",
      "outputs": [],
      "payable": false,
      "stateMutability": "nonpayable",
      "type": "function"
    },
    {
      "constant": true,
      "inputs": [],
      "name": "getShipment",
      "outputs": [
        {
          "name": "",
          "type": "address"
        },
        {
          "name": "",
          "type": "string"
        },
        {
          "name": "",
          "type": "string"
        },
        {
          "name": "",
          "type": "uint256"
        },
        {
          "name": "",
          "type": "uint256"
        }
      ],
      "payable": false,
      "stateMutability": "view",
      "type": "function"
    }
  ],
  "bytecode": "0x608060405234801561001057600080fd5b50610df4806100206000396000f3006080604052600436106100d0576000357c0100000000000000000000000000000000000000000000000000000000900463ffffffff16806316ad9542146100d5578063188b4d811461016557806332245dca146102a25780633756bc1a146102d45780633eaa0b0214610301578063473e9bc21461036a5780636e4651fe1461039557806392f55613146103c05780639f9c27e8146103f7578063a50a18be1461042e578063ab644fcb1461045b578063acff1a9e1461051e578063df1f29ee14610587578063f19779d214610617575b600080fd5b3480156100e157600080fd5b506100ea610649565b6040518080602001828103825283818151815260200191508051906020019080838360005b8381101561012a57808201518184015260208101905061010f565b50505050905090810190601f1680156101575780820380516001836020036101000a031916815260200191505b509250505060405180910390f35b34801561017157600080fd5b5061017a6106eb565b604051808673ffffffffffffffffffffffffffffffffffffffff1673ffffffffffffffffffffffffffffffffffffffff1681526020018060200180602001858152602001848152602001838103835287818151815260200191508051906020019080838360005b838110156101fc5780820151818401526020810190506101e1565b50505050905090810190601f1680156102295780820380516001836020036101000a031916815260200191505b50838103825286818151815260200191508051906020019080838360005b83811015610262578082015181840152602081019050610247565b50505050905090810190601f16801561028f5780820380516001836020036101000a031916815260200191505b5097505050505050505060405180910390f35b3480156102ae57600080fd5b506102b7610869565b604051808381526020018281526020019250505060405180910390f35b3480156102e057600080fd5b506102ff600480360381019080803590602001909291905050506108b8565b005b34801561030d57600080fd5b50610368600480360381019080803590602001908201803590602001908080601f01602080910402602001604051908101604052809392919081815260200183838082843782019150505050505091929192905050506108ef565b005b34801561037657600080fd5b5061037f610909565b6040518082815260200191505060405180910390f35b3480156103a157600080fd5b506103aa610932565b6040518082815260200191505060405180910390f35b3480156103cc57600080fd5b506103f5600480360381019080803590602001909291908035906020019092919050505061095a565b005b34801561040357600080fd5b5061042c600480360381019080803590602001909291908035906020019092919050505061099b565b005b34801561043a57600080fd5b50610459600480360381019080803590602001909291905050506109dc565b005b34801561046757600080fd5b5061051c600480360381019080803590602001908201803590602001908080601f0160208091040260200160405190810160405280939291908181526020018383808284378201915050505050509192919290803590602001908201803590602001908080601f01602080910402602001604051908101604052809392919081815260200183838082843782019150505050505091929192908035906020019092919080359060200190929190505050610a12565b005b34801561052a57600080fd5b50610585600480360381019080803590602001908201803590602001908080601f0160208091040260200160405190810160405280939291908181526020018383808284378201915050505050509192919290505050610bae565b005b34801561059357600080fd5b5061059c610bc8565b6040518080602001828103825283818151815260200191508051906020019080838360005b838110156105dc5780820151818401526020810190506105c1565b50505050905090810190601f1680156106095780820380516001836020036101000a031916815260200191505b509250505060405180910390f35b34801561062357600080fd5b5061062c610c6a565b604051808381526020018281526020019250505060405180910390f35b606060018054600181600116156101000203166002900480601f0160208091040260200160405190810160405280929190818152602001828054600181600116156101000203166002900480156106e15780601f106106b6576101008083540402835291602001916106e1565b820191906000526020600020905b8154815290600101906020018083116106c457829003601f168201915b5050505050905090565b6000606080600080600360009054906101000a900473ffffffffffffffffffffffffffffffffffffffff1660046005600654600754838054600181600116156101000203166002900480601f0160208091040260200160405190810160405280929190818152602001828054600181600116156101000203166002900480156107b55780601f1061078a576101008083540402835291602001916107b5565b820191906000526020600020905b81548152906001019060200180831161079857829003601f168201915b50505050509350828054600181600116156101000203166002900480601f0160208091040260200160405190810160405280929190818152602001828054600181600116156101000203166002900480156108515780601f1061082657610100808354040283529160200191610851565b820191906000526020600020905b81548152906001019060200180831161083457829003601f168201915b50505050509250945094509450945094509091929394565b6000806002600381548110151561087c57fe5b9060005260206000209060020201600001546002600381548110151561089e57fe5b906000526020600020906002020160010154915091509091565b60006108c2610cb9565b600260008154811015156108d257fe5b906000526020600020906002020190508181600001819055505050565b8060019080519060200190610905929190610d09565b5050565b60006002600081548110151561091b57fe5b906000526020600020906002020160000154905090565b600060028081548110151561094357fe5b906000526020600020906002020160000154905090565b6000610964610cb9565b6002600381548110151561097457fe5b90600052602060002090600202019050828160000181905550818160010181905550505050565b60006109a5610cb9565b600260018154811015156109b557fe5b90600052602060002090600202019050828160000181905550818160010181905550505050565b60006109e6610cb9565b6002808154811015156109f557fe5b906000526020600020906002020190508181600001819055505050565b30600360006101000a81548173ffffffffffffffffffffffffffffffffffffffff021916908373ffffffffffffffffffffffffffffffffffffffff1602179055508360049080519060200190610a69929190610d09565b508260059080519060200190610a80929190610d09565b5081600681905550806007819055507f79e8575ea2c7ae1c7c19d0b392312659498905399b5fa1ec87d5947918134b3b84848484604051808060200180602001858152602001848152602001838103835287818151815260200191508051906020019080838360005b83811015610b04578082015181840152602081019050610ae9565b50505050905090810190601f168015610b315780820380516001836020036101000a031916815260200191505b50838103825286818151815260200191508051906020019080838360005b83811015610b6a578082015181840152602081019050610b4f565b50505050905090810190601f168015610b975780820380516001836020036101000a031916815260200191505b50965050505050505060405180910390a150505050565b8060009080519060200190610bc4929190610d09565b5050565b606060008054600181600116156101000203166002900480601f016020809104026020016040519081016040528092919081815260200182805460018160011615610100020316600290048015610c605780601f10610c3557610100808354040283529160200191610c60565b820191906000526020600020905b815481529060010190602001808311610c4357829003601f168201915b5050505050905090565b60008060026001815481101515610c7d57fe5b90600052602060002090600202016000015460026001815481101515610c9f57fe5b906000526020600020906002020160010154915091509091565b610cc1610d89565b60028190806001815401808255809150509060018203906000526020600020906002020160009091929091909150600082015181600001556020820151816001015550505050565b828054600181600116156101000203166002900490600052602060002090601f016020900481019282601f10610d4a57805160ff1916838001178555610d78565b82800160010185558215610d78579182015b82811115610d77578251825591602001919060010190610d5c565b5b509050610d859190610da3565b5090565b604080519081016040528060008152602001600081525090565b610dc591905b80821115610dc1576000816000905550600101610da9565b5090565b905600a165627a7a72305820f3e40720270b92eaa5db2dd0ee2884a780ae262a33936df55dd5fc3e4ffde99d0029",
  "source": "pragma solidity ^0.4.23;\n\nimport \"./participant.sol\";\n\ncontract vendor is participant {\n\n    address shipmentId;\n    string name;\n    string description;\n    uint scheduledVolume;\n    uint loadPrice;\n\n    event LogShipment(\n        string name,\n        string description,\n        uint volume,\n        uint loadPrice\n    );\n\n    function addShipment(\n        string _name,\n        string _description,\n        uint _volume,\n        uint _loadPrice\n    ) public {\n        shipmentId = this;\n        name = _name;\n        description = _description;\n        scheduledVolume = _volume;\n        loadPrice = _loadPrice;\n\n        emit LogShipment(\n            _name,\n            _description,\n            _volume,\n            _loadPrice\n        );\n    }\n\n    function getShipment() view public returns (\n        address,\n        string,\n        string,\n        uint,\n        uint) {\n        return (shipmentId, name, description, scheduledVolume, loadPrice);\n    }\n\n}\n\n",
  "sourcePath": "/home/arpit/ChainSkills/oilShipmentPOC/contracts/vendor.sol",
  "compiler": {
    "name": "solc",
    "version": "0.4.24+commit.e67f0147.Emscripten.clang"
  },
  "schemaVersion": "2.0.1",
  "updatedAt": "2018-08-02T09:11:44.868Z"
}